S02300006D6C5F617564696F5F636C61737369666965725F76325F66696E616C2E73333793
S3150800000000040020154A0008BF760108BF760108DB
S31508000010BF760108BF760108BF760108BF760108DA
S31508000020BF760108BF760108BF760108BF760108CA
S31508000030BF760108BF7601084DA40008BF760108FF
S31508000040BF760108BF760108BF760108BF760108AA
S31508000050BF760108BF760108BF760108BF7601089A
S31508000060BF760108BF760108BF760108BF7601088A
S31508000070BF760108BF760108BF760108BF7601087A
S31508000080BF760108BF760108BF760108BF7601086A
S315080000900943000811760108BF760108BF760108F2
S315080000A0BF760108BF760108BF760108BF7601084A
S315080000B0D5500008BF760108BF760108BF7601084B
S315080000C0BF760108BF760108BF760108616C000893
S315080000D0BF760108BF760108BF7601086D6800087B
S315080000E04D680008BF760108BF760108BF7601088B
S315080000F0BF760108BF760108BF760108BF760108FA
S31508000100BF760108BF760108BF760108BF760108E9
S31508000110BF760108BF760108BF760108BF760108D9
S31508000120BF760108BF760108BF760108BF760108C9
S31508000130B17E0108BF760108BF760108BF760108BF
S31508000140BF760108BF760108BF760108BF760108A9
S31508000150BF760108BF760108BF760108BF76010899
S31508000160BF760108BF760108BF760108BF76010889
S31508000170BF760108BF760108BF760108BF76010879
S31508000180BF760108BF760108BF7601087BCE010855
S31508000190BF760108BF760108BF760108BF76010859
S315080001A0BF760108BF760108BF760108BF76010849
S309080001B0BF760108FF
S315080001C0013800D0FCE7704738B505462B68084665
S315080001D0C2E90031144613F039F941EC100B00F06E
S315080001E0F7FE19A3D3E9002351EC100B13F0C2FA5A
S315080001F041EC100B01F080F951EC100B13F02AFCBE
S31508000200D5ED017AFEEECC7A17EE903AD5ED027A64
S31508000210FEEECC7AA38317EE903AD5ED037AFEEE7E
S31508000220CA7AE38317EE903AD5ED047AFEEECA7AD7
S31508000230238417EE903A63840023A060C4E905334B
S31508000240C4E9033338BD00BFEF39FAFE422EE63F54
S3150800025008B510EE100A13F00BF900220C4B13F038
S3150800026089FA41EC100B00F0F7FE07A3D3E9002347
S3150800027051EC100B13F054F913F034FC00EE100A8D
S3150800028008BD00BFAFF3008000000000009C91404D
S3150800029000E08540000000004FF47A732DE9F04F26
S315080002A005682DED028B5543B5FBF3F50C460D603D
S315080002B041684FEA450A4A43B2FBF3F2504683B017
S315080002C0A26013F0D3FF0746606058B9424B434813
S315080002D01B68D96814F09EF8002003B0BDEC028BA9
S315080002E0BDE8F08F07EE905AF8EEE77A17EE900A17
S315080002F013F0BEF802460B4635A1D1E9000113F00A
S3150800030039FA13F0EFFB002683464FF000089FEDFD
S31508000310348ADFF8D890B5420CDC002350462361B6
S3150800032013F0A4FFE060002844D12B4B2D481B682E
S31508000330D968CFE7304613F089F842464B4612F0A3
S3150800034039FFCDE90001584613F092F802460B46EC
S31508000350DDE9000113F0E4F813F0C4FB00EE100A1F
S3150800036014F070FC10EE100A13F082F842464B4661
S3150800037013F0D6F802460B464046494612F018FFD7
S3150800038013F0B0FB07EE900A67EE887A17EE900A2C
S3150800039013F06EF842464B4612F00CFF41EC100B78
S315080003A001F02AF951EC100B13F054FB27F816004C
S315080003B00136B0E7504613F059FF606120B9064B85
S315080003C009481B68D96885E7012086E7AFF30080EE
S315080003D0182D4454FB211940FC2203208AD2010817
S315080003E000008045B2D20108D3D201080000E03FE0
S315080003F038B50022164B51EC100B13F091F810A3E8
S31508000400D3E9002304460D4613F01AFB70B90EA370
S31508000410D3E900232046294613F0F4FA58B92046B2
S31508000420294613F0E5FE00EE100A38BD47F6FF33FD
S3150800043000EE103AF9E74FF6FF33F9E7AFF300801D
S315080004400000000000FCEF400000000000FCEFC0C8
S315080004500000E040000000002DE9F04F93B0CDE920
S315080004600A32DDE91C530E9353EC102BCDE9080133
S31508000470104619468DED060B1E9E13F0B9FA80B18B
S31508000480DDE906014FF0FF32C54B13F0D9FA40B942
S31508000490DDE906014FF0FF326FF4801313F0B2FA6C
S315080004A070B1DDE908019DED060B0E9B1E96CDE9A0
S315080004B01C53DDE90A3213B0BDE8F04F00F088B9E5
S315080004C00022DDE90601002313F09CFA002800F05B
S315080004D03381DDE906A303F1004BCBF30A5016F48A
S315080004E08063A0F2FF3008BF06250F9312F0AEFF17
S315080004F09BA3D3E9002313F013F89BA3D3E90023A6
S3150800050012F058FECBF31304894644F07F51804617
S315080005100022A44B504641F4401112F049FE94A320
S31508000520D3E9002312F0FCFF02460B464046494633
S3150800053012F040FE13F08EFA044612F087FF8EA3DF
S31508000540D3E900238046894612F0EAFF0022964B3B
S3150800055012F030FE13F07EFA89A3D3E9002307468A
S315080005604946404612F0DCFF80463846894612F076
S315080005706DFF85A3D3E9002312F0D2FF02460B468E
S315080005804046494612F014FE02460B46CDE90C23B6
S3150800059012F0C6FFDDE90C23804689461046194647
S315080005A012F008FE0022CDE91001804B404649466C
S315080005B013F0E0F800227E4B12F0FCFD02460B46D3
S315080005C04046494613F0D6F800227A4B12F0F2FD5F
S315080005D002460B464046494613F0CCF8DDE90C23A3
S315080005E08046894600204FF0804112F0E1FD024620
S315080005F00B464046494612F0DDFD02460B46DDE94C
S31508000600100113F0B7F807F2FF3700226A4B12F011
S31508000610D1FD00223B0512F083FF52465B46804619
S31508000620894613F00DFA002840F08980CDE90C8937
S3150800063004F16303C72B34BF0427052731051BD5EF
S3150800064053A3D3E900235046594613F0EFF900287F
S315080006507FD051A3D3E900235046594613F0D2F967
S31508000660002876D00027A542C6BF2C1B04F1FF350B
S3150800067000253C4646F480660E9B9F422CBF4FF0F1
S315080006800008A3EB070816F0020903D0002F18BFCD
S315080006904FF000083CB1DDE90C235046594613F0EB
S315080006A069F882468B46DDE906010022002313F02D
S315080006B0A9F910B10BF100439B46DDE9080126F4C0
S315080006C00063CDE90183DDE90A324BEC10AB0095F6
S315080006D000F07EF802465FB3DDE9091316F0200F35
S315080006E000F10105089E0CBF65204520B047DDE9ED
S315080006F008010523002205930A23002CCDE90232BE
S3150800070007F1FF374FEAD473B8BF64422A4601930C
S3150800071004970A9B009417F0FDFE0246B9F1000FF4
S3150800072006D00B9BC41A0B9B1A190E9BA34245D8DD
S31508000730104613B0BDE8F08FDDE906ABCDE6002222
S31508000740404649461A4B13F015F8013CCDE90C0111
S315080007506EE7002D90D00F9B002B8DD0013D8BE7C7
S31508000760FB799F501344D33FB3C8608B288AC63F92
S3150800077061436F63A787D23F71A379094F930A40F4
S315080007801655B5BBB16B0240EF39FAFE422EE63F6D
S315080007902D431CEBE2361A3F0000000080842E41F0
S315080007A0FFFFEF7F0000F83F0000E03F00002C400D
S315080007B000002440000018400000F03F2020DDE93A
S315080007C00913089DA8470134ADE700BF00000000E3
S315080007D02DE9F04F5BEC10AB97B0CDE90501DDE9EB
S315080007E02057CDE90723504652465B465946229E76
S315080007F013F0FEF870B90323CDE902760193B04BE6
S315080008000093DDE90501DDE9072317F0A3FD17B01D
S31508000810BDE8F08F4FF0FF326FF48013504659460B
S3150800082013F0F0F828B10423CDE902760193A54B1D
S31508000830E6E74FF0FF3250465946A34B13F000F94E
S3150800084068B1A24A06F00403002B08BF0322A04B96
S315080008501CBF13460422CDE902760192D0E7504622
S3150800086093A3D3E90023594613F0EAF838B992A3BB
S31508000870D3E900235046594613F0C4F868B1DDE9B8
S315080008800723DDE905014BEC10ABCDE92176209570
S3150800089017B0BDE8F04FFFF7DFBD00220023504632
S315080008A0594613F0AFF8002800F09A805B46524686
S315080008B00020002112F07CFC012382468B46099316
S315080008C016F4806400F08E80092D40F28E80002494
S315080008D030210EABA5F109020134202C03F8011BC7
S315080008E0A5EB040901D09442F6D15946504613F0B7
S315080008F0B1F8784B054603EBC90393ED007B8DED04
S315080009000A7B12F0A3FD02460B465046594612F0E2
S315080009104FFCDDE90A2312F003FE02460B46CDE939
S315080009200C2313F0BFF8804612F080FD02460B46F2
S31508000930DDE90C0112F03CFC02460B46CDE90C231E
S315080009400022654B13F07CF8002851D008F1010805
S31508000950404612F06BFD02460B46DDE90A0113F02C
S315080009605BF810B14FF000080135B9F1000F50D10E
S31508000970284612F06BFD02460B465046594612F0C1
S3150800098017FC0022544B8046894613F03BF830B1D9
S31508000990002240464946504B13F052F810B1E8077A
S315080009A000D501350A210EAB1A19202C0AD095FB61
S315080009B0F1F001FB1055303502F8015B01340546AC
S315080009C00028F2D106F00302012A57D1002F55D08C
S315080009D0099A12B916F00C0F00D0013F302245E0F3
S315080009E009906DE74FF006097FE7A94600247CE7E2
S315080009F00022DDE90C01384B13F004F80028B4D1C5
S31508000A00B8F1000F02D018F0010FAED008F10108B6
S31508000A10ABE70A210EAB2344202C0ED0B8FBF1F02D
S31508000A2001FB1082B8F1090F02F1300209F1FF3912
S31508000A3004F1010403F8012B11D83021A1440EAAB0
S31508000A40202CAFD0A14504F101030AD11C4609F1B7
S31508000A5058030DEB03092E2309F8203CA2E780462C
S31508000A60DAE7A1541C46EBE71A550134A74205D923
S31508000A70202CF9D1CDE902760194C1E6202CF9D0D3
S31508000A80099A3AB12D2104F158026A4402F8201C49
S31508000A900134EFE7710704D504F158022B216A44A3
S31508000AA0F4E73207E6D504F1580220216A44EDE757
S31508000AB00000000065CDCD410000000065CDCDC128
S31508000AC06349030867490308FFFFEF7F5A4903088C
S31508000AD05F490308704903080000E03F0000000072
S31508000AE02DE9F74F0446DDE90C7B886816469A46D9
S31508000AF00D4612F0BDFC8046B068894612F0B8FC77
S31508000B0002460B464046494612F00AFD804689468B
S31508000B10BAF1000F1BD0DAF8080012F0A9FC024659
S31508000B200B464046494612F043FB8046B86821F01A
S31508000B30004912F09DFC02460B464046494612F013
S31508000B4019FE12A3D3E9002312F066FF50B13B4603
S31508000B50324629462046CDF830B003B0BDE8F04FFE
S31508000B600CF0F0BA064B20460093656940F245132F
S31508000B70044A0549A847012003B0BDE8F08F00BF25
S31508000B808F4B0308D84A030826D501087B14AE47BD
S31508000B90E17A943F000000002DE9F84F4FF000433A
S31508000BA02DED028B23FA00F057EC106B59EC118BE4
S31508000BB093468A4612F04AFC424604460D464B4680
S31508000BC03046394612F0ACFC02460B46204629460A
S31508000BD012F0A6FC02460B4643EC182B0AA3D3E9EF
S31508000BE0002312F02DFF08B19FED078B594650469A
S31508000BF0B0EE480AF0EE680ABDEC028BBDE8F84F85
S31508000C000CF0ECBCAFF300800000C0FFFFFFDF4133
S31508000C102DE9F0432DED028B99460B7F89B0072B02
S31508000C2004460F461546129E1AD140F20241836BBE
S31508000C30984740B9AC4B0093272365692046AB4AD1
S31508000C40AB49A84799E0B06240F202412046A36B3F
S31508000C50984720B9A74B009365692B23EEE7F06206
S31508000C602A7F3B7F072A08D1092B3DD0072B13D0B3
S31508000C70A14B009365693123E0E79A4234D0CDE968
S31508000C8002329E4B01939E4B00933423656920469E
S31508000C90964A9C49A84770E0D5F80C80B8F1000F31
S31508000CA009D00023CDE90283974B0193974B009314
S31508000CB065693923EBE74146DFED950A47F6FF708C
S31508000CC09FED940AB36A944A0DF05AFDF36A4146B9
S31508000CD0DFED8F0A9FED910A914A92480DF050FD7B
S31508000CE0EB68F361AB68336297F81C80B8F1090FBB
S31508000CF045D0B8F1070F40F03781FB684BB10022A9
S31508000D00CDE90232804B0193874B009365695B23DB
S31508000D10BDE7EA6842B1CDE902237B4B01937B4BE1
S31508000D20009365695C23B2E7DFED807A95ED027A78
S31508000D30B4EEE77AF1EE10FADFED7D6ACCBF77EE16
S31508000D40677A77EEC77AF4EEE67AF1EE10FA7EDD88
S31508000D504FF07C53002217EE100ACDE9042312F057
S31508000D6087FB744BCDE902010193734B00935D2316
S31508000D70656920465D4A7149A847012086E0287FB3
S31508000D80072832D1EB6813F5004F09D0654ACDE93B
S31508000D9002326B4B01935D4B00936569622376E7DC
S31508000DA0DFED687A95ED027AB4EEE77AF1EE10FA9D
S31508000DB0DFED656ACCBF77EE677A77EEC77AF4EE31
S31508000DC0E67AF1EE10FA66DD0022604B17EE100A9D
S31508000DD0CDE9042312F04CFB5D4BCDE902010193EA
S31508000DE0554B009365696323C3E7092812D06669E2
S31508000DF00CF06CF9054640460CF068F9554BCDE900
S31508000E00025001933D4B009366232046374A5249C8
S31508000E10B047B2E7EB6813F1800F0AD06FF07F0294
S31508000E20CDE902324D4B0193384B00936569672330
S31508000E302DE795ED027ADFED4A7AB4EE677AF1EEA0
S31508000E4010FA28D0474B009365696823F6E6B86818
S31508000E5012F00EFB0446D9F800000D4612F008FB06
S31508000E6002460B462046294612F05AFB1CA3D3E934
S31508000E70002312F07FFC06F1080841EC100B4046EF
S31508000E8007A90CF063FB079BF360002009B0BDECD3
S31508000E90028BBDE8F083B86812F0EAFA41EC180B49
S31508000EA0D9F8000012F0E4FA06F1080441EC100B38
S31508000EB0B0EE481AF0EE681A2146052007AAFFF791
S31508000EC06BFE07991F22F160052017F0DDFC12F072
S31508000ED0BDFA01F1004112F0BDFDB061D5E700BFD2
S31508000EE0140014001400243FAF5C03082E5C0308AA
S31508000EF026D50108C65C0308334C0308E95C0308D9
S31508000F00F65C030846D601088D4B0308025D030804
S31508000F1080000038A00020395F8E010880008037E5
S31508000F20518E01080080FFFF1C5D03080000003891
S31508000F306F120333555D0308615D0308355D0308C9
S31508000F40765D0308000080376F1283320000F03E9A
S31508000F507D5D0308895D0308F2590308955D03085A
S31508000F600000803B9A5D0308B8F1010F0FD0404698
S31508000F7066690CF0ABF8054601200CF0A7F8104B93
S31508000F80CDE9025001930F4B009385233DE7287F57
S31508000F9001280ED066690CF099F8054640460CF013
S31508000FA095F8074BCDE902500193074B009386232A
S31508000FB02BE7D9F8000012F05BFAC6E9000164E7EE
S31508000FC0BC5D0308F65C0308E95C03080000000042
S31508000FD038B555EC104B2DED028B00F091FB2246EF
S31508000FE02B4620462946B0EE408AF0EE608A15F078
S31508000FF079F998B9002200232046294612F020FDE7
S3150800100060B9002200232046294612F0F1FC60B19F
S3150800101015F062F922239FED0C8B0360B0EE480AA7
S31508001020F0EE680ABDEC028B38BD15F055F92122A1
S3150800103003460748BDEC028B1A60BDE8384000F04D
S3150800104053BA00BFAFF30080000000000000F0FFB5
S31508001050E804040800000000BD4B2DE9F04F5BECE6
S3150800106010AB9B4585B05C4613DC2BF00045B94BAD
S315080010709D426CD90022B84B5046594612F0B8FC2E
S31508001080002800F0F680012005B0BDE8F04F13F007
S3150800109075BEB24B9B4500F3E180B14B9B4540F3CF
S315080010A0BA81251556469FED947BA5F2FF358DED41
S315080010B0027BC4F31304AB4B9C4200F3A18144F0BA
S315080010C07F57304647F4401739460022A64B12F0A0
S315080010D06FF806460F460022A44BB24612F020FAD5
S315080010E032463B46BB4612F01BFA80468946CDE996
S315080010F00089002C42D1002200233046394612F0DE
S3150800110077FC002800F0D880002D00F0A38128463F
S3150800111012F09CF906460F4679A3D3E9002312F08C
S31508001120FFF9DDE9022312F045F804460D4630467C
S31508001130394675A3D3E9002312F0F2F902460B46A5
S315080011402046294612F036F841EC100B8EE0A3F142
S31508001150E8739D4240F29480854B1C449C4240F2C1
S315080011605A810022814B50465946002512F0D8F97B
S3150800117052465B4612F0D4F9CDE9000100224FF041
S3150800118080435046594612F015F802460B4650461B
S31508001190594612F0EFFA02460B468046894612F087
S315080011A0BFF906460F465AA3D3E9002312F0B8F949
S315080011B059A3D3E9002311F0FDFF32463B4612F04E
S315080011C0AFF957A3D3E9002311F0F4FF32463B46A3
S315080011D012F0A6F954A3D3E9002311F0EBFF324627
S315080011E03B4612F09DF952A3D3E9002311F0E2FF22
S315080011F032463B4612F094F94FA3D3E9002311F087
S31508001200D9FF32463B4612F08BF94DA3D3E90023AA
S3150800121011F0D0FF32463B4612F082F906460F46D9
S31508001220002D40F0AB80DDE9004522462B4611F043
S31508001230C1FF42464B4612F073F902460B4620465A
S31508001240294611F0B5FF02460B465046594611F09D
S31508001250AFFF41EC100B05B0BDE8F08F52465B4678
S315080012605046214611F0A6FF41EC100B05B0BDE82B
S31508001270F08F4BEC10AB05B0BDE8F04F13F09ABDFC
S3150800128000223C4B5046594611F094FF0022002399
S3150800129012F0D6FB28B1384B9D4202D84BEC10AB66
S315080012A0E4E752465B465046594612F039F90022A1
S315080012B02E4B12F035F9C6E723A3D3E900233046AF
S315080012C0394612F02DF902460B460020264911F040
S315080012D06FFF42464B4612F023F980468946002D99
S315080012E040F0BB8002460B463046394611F060FF97
S315080012F041EC100BBAE700BF000000000000000038
S31508001300763C7935EF39EA3D0000E0FE422EE63FAD
S3150800131044523EDF12F1C23F9FC678D0099AC33FB6
S31508001320DE03CB966446C73FAF788E1DC571CC3FAA
S31508001330599322942449D23F04FA97999999D93F07
S31508001340935555555555E53F555555555555E53F0D
S315080013507982DA3FFFFFEF3F0000F0BFFFFFEF7F24
S31508001360FFFF3F439DA006000000F03F0000E03F5E
S315080013703C412D4000005043FFFF8F3C284612F0A9
S3150800138065F804460D4652A3D3E9002312F0C8F8BF
S3150800139002460B463046394616461F46DDE9002307
S315080013A011F008FF42464B4612F0BAF802460B46C1
S315080013B02046294614461D4647A3D3E9002312F0C2
S315080013C0AFF8DDE9022311F0F5FE02460B4620468A
S315080013D0294611F0EFFE02460B46DDE9000111F041
S315080013E0E7FE52465B4611F0E3FE02460B463046E0
S315080013F0394611F0DDFE41EC100B05B0BDE8F08F63
S3150800140044F07F57C4F580140135304647F4001779
S31508001410A410394659E60022314B5046594611F078
S31508001420C9FE06460D150F460C46A5F2FF35002DDA
S315080014303DDD52465B4611F0BBFE02460B460020D8
S31508001440274911F0B5FE32463B4612F093F9CDE92D
S3150800145002012EE69FED1C0B08E7284611F0F6FF61
S3150800146082468B461AA3D3E9002312F059F804469C
S315080014700D465046594618A3D3E9002312F050F8F2
S31508001480DDE9022311F096FE02460B464046494620
S3150800149011F08EFE32463B4611F08AFE02460B4696
S315080014A02046294611F084FE41EC100BDEE60022A8
S315080014B00B4B11F07DFE02460B465046594611F07D
S315080014C077FEC0E7AFF300800000000000000000D0
S315080014D00000E0FE422EE63F763C7935EF39EA3DDC
S315080014E00000F03F000000009FED010B704700BFB1
S315080014F0000000000000F87F51EC100BC1F30A53FE
S315080015002DE9F041A3F2FF350C460646132D34DCCF
S31508001510002D20DB364B0F4643FA05F801EA08038F
S3150800152003432FD030A3D3E9002311F043FE002252
S31508001530002312F085FA40B1002C03DD4FF4801326
S315080015402B411F4427EA080400262346324643EC6B
S31508001550102BBDE8F08124A3D3E9002311F02AFE5D
S315080015600022002312F06CFA0028EED0002C36DB9D
S315080015703443E9D000261F4CE7E7332D06DDB5F5E1
S31508001580806F25D041EC100BBDE8F081A3F2134320
S315080015904FF0FF37DF403842F4D013A3D3E90023D6
S315080015A011F008FE0022002312F04AFA0028CCD0D7
S315080015B0002C334609DD142D06D0C5F13405012269
S315080015C0AA4013449E4200D9013423EA0706BCE721
S315080015D002460B4611F0EEFD41EC100BD4E700264F
S315080015E04FF00044B1E700BF9C7500883CE4377EA5
S315080015F0FFFF0F000000F03F51EC100BC1F30A5338
S315080016002DE9F041A3F2FF350C460646132D32DCD0
S31508001610002D20DB384B0F4643FA05F801EA08038C
S3150800162003432DD032A3D3E9002311F0C3FD0022D2
S31508001630002312F005FA40B1002C03DA4FF48013A8
S315080016402B411F4427EA080400262346324643EC6A
S31508001650102BBDE8F08126A3D3E9002311F0AAFDDB
S315080016600022002312F0ECF90028EED0002C2ADB29
S3150800167000263446E9E7332D06DDB5F5806F1BD025
S3150800168041EC100BBDE8F081A3F213434FF0FF378E
S31508001690DF400742F4D016A3D3E9002311F08AFDF0
S315080016A00022002312F0CCF90028CED0002C3346B5
S315080016B010DB23EA0706C8E702460B4611F07AFD57
S315080016C041EC100BDEE724F0004426430DD14FF021
S315080016D00044BAE7142D06D0C5F134050122AA4004
S315080016E01344B342E5D20134E3E70026034CACE7E2
S315080016F09C7500883CE4377EFFFF0F000000F0BFB2
S3150800170053EC102BB3F5801F2DE9F04F1C4687B01C
S3150800171058DA23F000411046114300F0F780002BF9
S315080017201946C0F234810022D94B11F0F9FE0C4655
S315080017300B46D84902466FF035008C4246DC251523
S31508001740D549C4F31304A5F2FF3521440544D3480B
S3150800175001F48011484005EB115540EA0403104690
S3150800176000221946CD4B11F023FDA31C82468B4659
S31508001770C3F31303022B32DC0022002312F038F9DC
S31508001780002800F0CE80002D00F09281284611F046
S315080017905DFE06460F46AAA3D3E9002311F0C0FE54
S315080017A004460D4630463946A7A3D3E9002311F06F
S315080017B0B7FE02460B462046294611F0FBFC41ECD3
S315080017C0100B09E0B34900208C42B8DD10461946D3
S315080017D011F0F0FC41EC100B07B0BDE8F08F0022C9
S315080017E04FF0804311F0E6FC02460B465046594638
S315080017F0DFF8B88211F0BEFF06460F46284611F0FC
S3150800180025FE32463B46A044CDE90401304639461A
S31508001810CDE9026711F084FE02460B46CDE90023A6
S3150800182011F07EFE06460F4689A3D3E9002311F080
S3150800183077FE89A3D3E9002311F0BCFC32463B4668
S3150800184011F06EFE86A3D3E9002311F0B3FC3246ED
S315080018503B4611F065FE84A3D3E9002311F0AAFCE8
S31508001860DDE9002311F05CFE81A3D3E90023CDE96D
S3150800187000013046394611F053FE7FA3D3E9002311
S3150800188011F098FC32463B4611F04AFE7CA3D3E998
S31508001890002311F08FFC32463B4611F041FE0B4601
S315080018A00246DDE9000111F085FC7D4B06460F4630
S315080018B01B1B43EA0803002B5BDD0022794B5046CD
S315080018C0594611F02DFE52465B4611F029FE804618
S315080018D08946002D64D142464B463046394611F0BA
S315080018E069FCDDE9022311F01BFE02460B46404661
S315080018F0494611F05DFC02460B465046594611F022
S3150800190057FC41EC100B07B0BDE8F08F002200230E
S315080019100020654911F02EFF41EC100B07B0BDE819
S31508001920F08F59A3D3E900235046594611F0F8FD24
S3150800193002460B4600205B4911F03AFC06460F4664
S3150800194052465B465046594611F0EAFD02460B469A
S315080019503046394611F0E4FD06460F46002D56D1AD
S3150800196002460B465046594611F022FC41EC100B34
S3150800197032E7002D40F09F8002460B4650465946F6
S3150800198011F016FCDDE9022311F0CAFDB3E711F0E8
S315080019900FFC0022002311F0EDFE41EC100B1BE7B3
S315080019A027A3D3E90023DDE9040111F0B9FD424676
S315080019B04B4604460D463046394611F0FBFBDDE939
S315080019C0022311F0ADFD06460F461FA3D3E90023F7
S315080019D0DDE9040111F0A4FD02460B4630463946FE
S315080019E011F0E8FB02460B464046494611F0E0FB7B
S315080019F052465B4611F0DCFB02460B46204629465A
S31508001A0011F0D6FB41EC100B07B0BDE8F08F284665
S31508001A1011F01CFD8046894609A3D3E9002311F07D
S31508001A207FFD04460D464046494607A3D3E90023F1
S31508001A3011F076FD02460B4630463946D6E700BF1A
S31508001A400000E0FE422EE63F763C7935EF39EA3D66
S31508001A5044523EDF12F1C23FDE03CB966446C73FCF
S31508001A60599322942449D23F935555555555E53FE8
S31508001A709FC678D0099AC33FAF788E1DC571CC3FF3
S31508001A8004FA97999999D93F555555555555D53FBE
S31508001A9000005043FFFFEF7F645F09000000F03F3E
S31508001AA051B806000000E03F000050C386EBF9FF7E
S31508001AB09FED0D0B90E6DDE904890DA3D3E900231C
S31508001AC04046494611F02CFD32463B4604460D4633
S31508001AD05046594611F06CFBDDE9022311F020FD52
S31508001AE006460F469FE700BF000000000000000002
S31508001AF00000E0FE422EE63F0348044B834202D034
S31508001B00034B03B1184770476C2303206C2303204B
S31508001B1000000000064B0749C91A891048BF013161
S31508001B20491003D0044B0BB101481847704700BF52
S31508001B306C2303206C2303200000000010B5064C1C
S31508001B40237843B9FFF7D8FF044B13B10448AFF322
S31508001B5000800123237010BD84FD022000000000D0
S31508001B60D408040808B5054B1BB105490548AFF369
S31508001B700080BDE80840FFF7CDBF00BF00000000A9
S31508001B8098AF0220D4080408A3F5803A704700BF2E
S31508001B90174B002B08BF134B9D46FFF7F5FF002197
S31508001BA08B460F461348144A121A18F0C8FA0E4BF9
S31508001BB0002B00D098470D4B002B00D098470020EB
S31508001BC0002104000D000D48002802D00C48AFF390
S31508001BD0008012F0DDFC2000290016F07AFB12F0D6
S31508001BE033FB00BF000008000000000000000000F2
S31508001BF00004002000040020EC210320000000005F
S31508001C00000000002DE9F04F2DED068B09EE103A85
S31508001C10036889B003F1010A4FEA4A0B0B60804654
S31508001C2058460C46914612F021FB0290E060584651
S31508001C3012F01CFB20610646584612F017FB60613D
S31508001C4007464FEACA0012F011FB20624FEA8A00E3
S31508001C5012F00CFB0546584612F008FB0090584651
S31508001C6012F004FB029B01902BB126B11FB115B1EE
S31508001C70009B03B1A0B9284612F000FB009812F0A9
S31508001C80FDFA019812F0FAFAC84BC9481B68D968D8
S31508001C9012F0C0FB002009B0BDEC068BBDE8F08F42
S31508001CA0D8ED028AF5EEC08AF1EE10FAD8ED019A5F
S31508001CB005DA2721BF4BC04AC04812F09FFAF4EE56
S31508001CC0E98AF1EE10FA03D42821BD4BBA4AF3E7A4
S31508001CD0B0EE680AFEF7BCFAB0EE408AB0EE690AC2
S31508001CE0FEF7B6FA07EE90AA30EE480AB8EEE77A9B
S31508001CF02A46C0EE077A002303959A4550DC4846E3
S31508001D0011F0A4FB0022AF4B11F00AFCB7EE007AE3
S31508001D10F8EEC97A77EEC77A804617EE900A8946B2
S31508001D2011F0A6FB02460B464046494611F022FD35
S31508001D3011F0D8FE08EE100AC8EE887A17EE900A57
S31508001D4011F096FBA04B002211F034FA11F082FE36
S31508001D50002381466060984618469B46A360049512
S31508001D60D04560DB0221584612F066FA022104903B
S31508001D70A061584612F060FA049B0590E0610BB129
S31508001D80002877D1284612F079FA009812F076FAE8
S31508001D90019812F073FA854B8C481B68D96877E767
S31508001DA0013307EE103AF8EEC76AB0EE487A06EE47
S31508001DB0A77AA2EC017AA0E7013207EE902AB8EEDC
S31508001DC0E70A20EE080A06900592FEF741FADDE9D1
S31508001DD00520049BD3ED007AB4EEE70AF1EE10FA7B
S31508001DE0EAD90099A2EB090321F81890019921F87C
S31508001DF018300BBB029926F8183021F818304FF026
S31508001E00040327F8183038B9304606EB480E7045F3
S31508001E100BD101200BF1040B049B9146043308F106
S31508001E20010804939CE74A46C7E7B0F900C00CF1DD
S31508001E30040C20F802CBEAE7B9F1000F09F0010E0D
S31508001E40B8BFCEF1000E9E44BEF1010C48BF0EF19C
S31508001E50020C029B2CF0030C09EBD9790CF1040C4B
S31508001E6029F0010926F818B023F8189027F818C0A1
S31508001E70E344D1E7B0EE680AFEF7EAF94FF0000846
S31508001E80F0EE409AD04513DB284612F0F7F9009891
S31508001E9012F0F4F9019812F0F1F919EE102AA36874
S31508001EA0934240F39D80414B49481B68D968EFE649
S31508001EB0009B33F91890019B33F918300793029B5E
S31508001EC033F9187036F91830A9EB0707B8F1000F7F
S31508001ED023D0039A12ED01AA4FF0000B1F44049B6E
S31508001EE003EB47030693059B03EB47070BEB090335
S31508001EF000EE103A079B9B4512DB002BACBF09EBA3
S31508001F00030209F10002A36808F101089A42039B3B
S31508001F10C8BFA26004330393B4E7B0EE69AADBE74F
S31508001F20B8EEC00A039B20EE080AD3ED008AFEF736
S31508001F308FF938EEC00A78EECA8ADFED267AC0EE47
S31508001F4028AA6AEEA77A17EE900A11F091FA0022EB
S31508001F501C4B11F02FF941EC100BFFF74DFB51EC20
S31508001F60100B11F077FD069B0BF1010B23F8020B02
S31508001F701AEE900A069311F07BFA02460B460020E9
S31508001F80154911F015F90022144B11F0C9FA00226F
S31508001F900C4B11F00FF941EC100BFFF72DFB51EC30
S31508001FA0100B11F057FD27F8020B9FE7FC220320C0
S31508001FB0D8CE0108FCCE01081DD001081ACF0108A9
S31508001FC098CF01080000E03F0000F83FC6CF01089F
S31508001FD0EFCF0108000080450000F03F0000B04048
S31508001FE0012058E6836973B505460C46164653B96B
S31508001FF0C36A43B13A4B3B481B68D96812F00AFAE0
S31508002000002002B070BDB4220021204618F097F8CF
S31508002010324621462846FEF73FF920B9304B32486A
S315080020201B68D968EAE7204650F81C1B00F0C4F97B
S3150800203020B12B4B2D481B68D968DFE7A36A3246C7
S315080020405B08013304F12C0105F10800FFF7DAFDFE
S3150800205020B9234B26481B68D968CFE7E26A04F102
S31508002060500105F1180000F0A7F820B91C4B2148CB
S315080020701B68D968C2E704F18402A96805F144001F
S31508002080FEF7A2F804F1A80105F1580014F0E0F9EA
S31508002090A36A04F16801B3FA83F3C3F11903019340
S315080020A0B4F8543005F12C000093E36A626E00F030
S315080020B0FBF820B90A4B10481B68D9689EE704F15B
S315080020C07C0105F13C0014F014FB20B9044B0B48C5
S315080020D01B68D96892E7204614F0F1FA012090E7C8
S315080020E0FC22032038D001086DD001088ED00108E3
S315080020F0A8D00108CDD00108F7D0010823D10108DE
S315080021002DE9F74F0646002408464BF2721E4FF497
S3150800211000484FF6FF7A01927268DFF898C000927D
S31508002120C3F10009019A944202DB03B0BDE8F08FBF
S31508002130326850F8241092B3002BB4BF21FA09F183
S315080021409940012933D9B1FA81F50122C5F11F0752
S315080021500F2F02FA07F2A1EB0202D5BF0F3DC5F118
S315080021600F05AA402A415512691C3CF815B03CF8DF
S315080021701110A2EB4525A1EB0B0169435A4402EB6A
S3150800218021420025414602EB0742E2FB0E15009A62
S31508002190090C41EA0541914001F50041090C5145F8
S315080021A00A4628BF524620F814200134BAE700210F
S315080021B0F5E700BF48D1010838B5034610461A6846
S315080021C00C460A600AB9012038BDD3ED037A9FEDA3
S315080021D0167A67EE877AFCEEE77A5A684A6017EE4F
S315080021E0902AD3ED027A67EE877AFCEEE77A4A817F
S315080021F017EE902AD3ED047A67EE877AFCEEE77A33
S3150800220017EE903A0A818B810861042112F014F8BE
S31508002210054660610028D6D1044B05481B68D96875
S3150800222012F0F8F82846CFE700008046FC22032083
S315080022304CD2010807EE102A012208B5C368B8EE89
S31508002240477A02FA03F38A4007EE902A00EE103A1C
S31508002250F8EE677AD0ED010A2DED028BB8EE408ACA
S3150800226087EE270AD0ED027AF1EE600A30EE270AE9
S3150800227012F08AFCDFED0B7A28EE000ABDEC028B21
S31508002280B4EEE70AF1EE10FADFBFF6EE007A30EEAA
S31508002290270ABDEEC00A10EE103ACCBF47F6FF700B
S315080022A018B208BD00FEFF462DE9F84F0E46016834
S315080022B005460B9F3160002956D0FA20C6E901234E
S315080022C011F0D4FF0446F06040B9284B28481B6833
S315080022D0D96812F09FF82046BDE8F88FEB6800220F
S315080022E0DB1B0C3B3361BDF828602846F61B3146DC
S315080022F0FFF7A0FF02272080012231462846FFF774
S3150800230099FF4FF0010B3B46608007F1FF39202FFC
S315080023100BFA09F23146284614BF03FA09F94FF0B9
S31508002320FF3902EB520AFFF785FF524680463146CF
S315080023302846FFF77FFF4A46824631462846FFF77A
S3150800234079FFAAEB080AA0EB0800C0EB8A0A013756
S31508002350A0EB0A00212FA4F80480A4F806A04FF0E9
S31508002360020324F8080FD0D10120B5E7FC22032088
S315080023706DD20108F8B5D0E902760446002305684F
S31508002380BB4210D1F21A5200B34288BF0022002184
S3150800239005EB430017F0D3FE294662680548BDE8F9
S315080023A0F8400DF09BB931F81300904025F813005A
S315080023B00133E5E7B8AF02202DE9F04F41F6F07397
S315080023C02DED028BA1F110029A42054689B000F262
S315080023D0FC80202915D909232024013B4FEA44040F
S315080023E001D0A142F9D866003046C5E9021411F0B9
S315080023F03DFF286038B9192009B0BDEC028BBDE84D
S31508002400F08F2024EFE7A00011F030FF6860002865
S31508002410F1D0304611F02AFF6D4B074618600028A8
S31508002420E9D0304611F022FF6A4B064618600028AC
S31508002430E1D007EE904A9FED687AF8EEE77A002336
S31508002440C7EE278A650807F1020A00F1020B019315
S31508002450DDED017AB8EEE78A28EE288AB0EE480A5A
S3150800246012F034FC10EE100A11F002F802460B4680
S31508002470CDE902010020594910F09AFE0022584B76
S3150800248011F04EF80022574B11F04AF811F02AFBCA
S3150800249007EE900AF8FE677AFDEEE77A17EE903AAD
S315080024A0B0EE480A2AF8023C12F0CCFB10EE100AED
S315080024B010F0DEFF01F10043059304900022DDE9E8
S315080024C00401474B11F02CF80022464B11F028F86E
S315080024D08946804611F006FB07EE900ADDE90201FF
S315080024E0F8FE677AFDEEE77A17EE903A00222AF8A8
S315080024F0043B3A4B10F05EFE0022394B11F010F8FF
S315080025000022384B11F00CF811F0ECFA07EE900A9D
S31508002510F8FE677AFDEEE77A17EE903A2BF8023C5A
S3150800252009F100430793CDF81880DDE9060111F09B
S31508002530D9FA07EE900AF8FE677AFDEEE77A17EE03
S31508002540903A2BF8043B019B01339D4201933FF7D8
S315080025507FAF4FF48073244AB5F5807F93804FF0A0
S315080025600103C2E903761460936024D012D8402D83
S3150800257023D007D81D4B1E49102D08BF0B46002037
S31508002580536139E7802D1AD0D3211A4B1A4A1B48B2
S3150800259011F034FEB5F5006F13D007D8B5F5007FF6
S315080025A011D0B5F5806FEFD1154BE8E7B5F5805F2B
S315080025B0EAD1144BE3E7144BE1E7144BDFE7144B7E
S315080025C0DDE7144BDBE7144BD9E7232014E700BFFC
S315080025D0B4AF0220B0AF0220DB0FC9400000F03FC5
S315080025E00000E03F0000E040B8AF02206C66030838
S315080025F07C660308F5D2010808D301083FD3010811
S315080026001C660308FC6503083C6603085C66030849
S315080026104C6603080C6603082C66030800B54FF4DD
S31508002620756299B00021194817F089FD0023184AE8
S3150800263014211360174ACDE905331360164A0B9324
S3150800264013602822CDE90021029200220492134A3F
S31508002650134B039205220792124A0C930892099289
S31508002660114B124A0D930A9201231522CDE90E2326
S3150800267006234FF47A5268460D491093FFF7B2FCC9
S31508002680B0FA80F0400919B05DF804FB2CC60220A8
S3150800269090B002208CB0022088B002200000FA45D3
S315080026A03333733F6F12833B0000A042CDCC4C3DC1
S315080026B0D0AF0220B1F5007F30B515D100230B4A03
S315080026C00B4D116830F81340194401336400B3F513
S315080026D0007F25F81140F4D10020136803F5007334
S315080026E0C3F30B03136030BD2120FCE78CB0022036
S315080026F07CD502202DE9F0430024274E87B0274DCC
S31508002700274B2A681B689A4209D1002C41D0002021
S31508002710244A13682344136007B0BDE8F0834FF4D6
S3150800272000782B68204FDFF8889007EB430703AB48
S315080027303A4600934946434604A813F06CFFDDE980
S31508002740033C07EB4307A8EB0308BCF1000F0ED0C8
S3150800275000230598154A984213D113680134184482
S315080027604FF4F563B0FBF3F103FB11001060B8F109
S31508002770000FDCD12B6803F50073C3F30B032B6042
S31508002780BDE711683CF813E0194426F811E0013357
S31508002790E1E71B20C0E700BF2CC6022090B002204C
S315080027A08CB0022084B002207CD5022088B002209A
S315080027B0D0AF0220B1F5F56FF0B53BD1002A39D07C
S315080027C000252C461C4F1D4E3B682344B3FBF1FCE9
S315080027D001FB1C3336F8133001349D42B8BF1D4641
S315080027E0B4F5F56FF0D1AA1A22EAE272A91A0129FC
S315080027F0B8BF012100256FF07F0C3B682B44B3FB63
S31508002800F4FE04FB1E3336F813309B1AC3EB03237E
S3150800281093FBF1F3803B6345B8BF63467F2BA8BFA4
S315080028207F2343550135B5F5F56FE6D10020044BF6
S315080028301860F0BD2120FCE788B002202CC60220D3
S3150800284084B0022010B501214FF47A5001F0DAFD68
S31508002850044648B94FF40071064A074801F0D6FE07
S31508002860044618B101F03AFF204610BDFFF7D6FE20
S31508002870FAE700BF256901087CF5022008B5024879
S3150800288001F020FAFEE700BFAED30108884208B57A
S3150800289002D1B0F1004F1FD080FB0101002911DBE6
S315080028A010F1804041F10001C00F40EA4100002AC2
S315080028B0C2F1000113DD4FF4B371134B134A1448E8
S315080028C011F09CFC134BC01861F100010029EBDAEA
S315080028D06FF00043C018E5E76FF00040E7E71F32E6
S315080028E004DA40F267110C4B084AE8E701238B40EB
S315080028F0013B03EA00025B1003EBD07308419A42DE
S31508002900C8BF013008BD00BFB6D30108C4D301084B
S315080029101ED40108010000C0A5D401082DE9F0471E
S315080029202DED068B81468AB08846DDE9187419466E
S3150800293010461E46154615F09EFF3B7F80F00100A7
S31508002940092B207040F08A8097ED027AF7EE006A2C
S31508002950C6EE877AEB680DF10C0A5B426362F36890
S3150800296029465B422363FB685046E363AB68A36270
S31508002970B368C4ED107A636315F0C7FF504613F0C9
S31508002980E8FF6064CDF800A03A46484698F800107B
S3150800299002AB0AF009FC00285BD1029B84F8483098
S315080029A0039B84F8493096ED028A95ED02AAB4EEA7
S315080029B0CA8AF1EE10FA4FF0140378FE0A7A17EE77
S315080029C0900AE36110F054FD02460B4610F0F2FB44
S315080029D08046894618EE100A10F04AFD42464B46D4
S315080029E010F0C8FE41EC190BB86810F041FD002242
S315080029F0284B10F095FD02460B464046494610F016
S31508002A00B9FE41EC180B1AEE100A10F031FD4246D9
S31508002A104B4610F0AFFE261D04F10C0541EC100BD9
S31508002A20314628460AF0FCFDB0EE490AF0EE690A7E
S31508002A3004F1080104F110000AF0F2FDB0EE480AAC
S31508002A40F0EE680A04F1180104F114000AF0E8FD32
S31508002A5000200AB0BDEC068BBDE8F087012BF7D144
S31508002A6098F80030012B03D10023E3640A4B04E0F5
S31508002A70032B04D10023E364084B2365E8E7022B04
S31508002A8004D1074BE3644FF07E53F6E76FF4000377
S31508002A90EBE700BF00003041FFFF7F7F0000C0402A
S31508002AA0000080BFCB682DE9F74305460E460BB9F3
S31508002AB0FFF7E4FE0B69002BFAD0C46800222368EE
S31508002AC020469B699847814660B9214B0093B723F6
S31508002AD06C6928461F4A2049A0470125284603B0A5
S31508002AE0BDE8F08323680122314620469B69984752
S31508002AF0804620B9194B00936C69BA23E9E7236825
S31508002B00002231462046DB699847074620B9144B10
S31508002B1000936C69BD23DCE7F3684A46CDE90003F8
S31508002B20284643463169FFF7F9FE05460028D5D100
S31508002B302368494620465B6A9847236841462046EB
S31508002B405B6A98472368394620465B6A9847C5E713
S31508002B503DD50108B4D4010826D501084FD501088A
S31508002B6061D50108002313B50446CDE90033044AAC
S31508002B70044B054915F0E9FF204602B010BD00BF19
S31508002B80A52A00088D2B0008296901082DE9FF47A9
S31508002B90D1E903A904460D46BAF1000F01D1FFF7A2
S31508002BA06DFE002215F0F3FF01222946074620464E
S31508002BB015F0EDFF002280462946204615F0E9FF6C
S31508002BC00646007A01280CD1204653464A4629462D
S31508002BD0CDE90186009714F021F9002004B0BDE87C
S31508002BE0F087092809D153464A4629462046CDE9A1
S31508002BF00186009714F08AF9F0E765690AF066FA23
S31508002C00337A024602492046A8470120E6E700BF74
S31508002C1073D501082DE9FF471446DDE90E7E1A46ED
S31508002C20DDE90C63D1ED025A616892ED025A0C682F
S31508002C309FED1E7A0021DFED1E6ADDF840C00434E0
S31508002C400DF10C080DF104090DF1080A614506DBC2
S31508002C500C97317804B0BDE8F0470AF0A5BAB4EC91
S31508002C60016A25EE866AC6EE057A67EE807AF4EE84
S31508002C70C77AF1EE10FACDED017A4CBF45464D46BE
S31508002C808DED037AD5ED007AF4EE667AF1EE10FA58
S31508002C90CDED026AC8BF5546D5ED007AF3EE677AE0
S31508002CA017EE905A2EF811500131CFE700E07FC792
S31508002CB000E07F472DE9F04FCC6805460E46AFB0D9
S31508002CC00CB9FFF7DBFDD1F81080B8F1000FF8D08A
S31508002CD0C76800223B683846DB6998473B6802228A
S31508002CE031469B698346384698473B6800223146F9
S31508002CF09B698246384698473B6881460122314699
S31508002D0038469B6998470C90B9F1000F09D16F4B6B
S31508002D10009376236C6928466D4A6E49A0470120C0
S31508002D20BBE0BBF1000F04D16B4B00936C697723B2
S31508002D30F1E70C9B23B9694B00936C697823EAE7A2
S31508002D40D9F814305A6822611A6962619A68DB6890
S31508002D500D920E9323620C9BE2615B695A689E682A
S31508002D600B92DB686262DBF814200F939168D268D5
S31508002D70A364D9F80C30E1625B42E366DBF80C30F9
S31508002D8022632367D8F80830666410932365D8F859
S31508002D90043011936365D8F8143063661293D8F833
S31508002DA010301393A36698F800305A1E14935342B2
S31508002DB0534184F85830139BDDE90E12009314989A
S31508002DC0119B14F05EFA129B32460D9915900093EA
S31508002DD01498109B14F055FA129B013E5E43109B03
S31508002DE00138013603FB00660D9B139AF61A0F9BF2
S31508002DF01199013B5343159A0133013A01FB0233FA
S31508002E000E9A99F81C009B1A26EAE67623EAE373DB
S31508002E1076105B100928E665236640F0D68004F133
S31508002E201006304614F04BFE04F134030E9304F1F9
S31508002E303803AA6B08F10C080D93002854D0002318
S31508002E4023700B9B284659000F9190470F99BAF1AA
S31508002E50000F37D000239FED227AE0640B9A9A423E
S31508002E601EDCAB6B28469847E0630F90304614F09B
S31508002E7045FE0B9B064604930F9B9FED1A0A039388
S31508002E800D9B494602930E9B2846CDE900830C9A72
S31508002E905B46FFF7BFFE002878D02FB0BDE8F08F5D
S31508002EA0DAF8102002EB8302D2ED007AF8EEE77A20
S31508002EB067EE877AF3EE677A17EE902A20F81320E2
S31508002EC00133CBE7C4F84CA0CBE700BF02D6010814
S31508002ED08FD5010826D5010861D5010813D6010842
S31508002EE000000038000000470B9B28469E0031462C
S31508002EF090473146AB6BA067284698470B9BE0671F
S31508002F00CDE90703A36F494606930D9B284605930B
S31508002F100E9B0C9A049317AB039316ABCDE901836A
S31508002F20CDF800B053460AF0C3F90028B5D10123FD
S31508002F302370E36E1CAA2493236F18A92593236D87
S31508002F4024A82793636D2693636E2B93A36E2A9307
S31508002F50E36D2993236E2893636B2C93A36B2D93B0
S31508002F6023691893E3691993236A1A9363691B9370
S31508002F70636C1D93A36C1E93E36A2193236B2293C0
S31508002F80636A239320AB0DF06FF90646002E2EDDFB
S31508002F90314628462B6C04F10C02984700287FF42A
S31508002FA07CAF3B68494638465B6A98473B68384673
S31508002FB05B6A0C9998473B68594638465B6A984756
S31508002FC0BAF1000F29D1002067E701281DD1022395
S31508002FD0237098F80C30012B03D100236360124B41
S31508002FE004E0032B07D100236360104BA3604FF066
S31508002FF0FF33E360D5E7022B04D10D4B63604FF036
S315080030007E53F3E76FF40003E8E76C690AF05EF8AD
S31508003010084902462846A04781E63B685146384695
S315080030205B6A9847CFE700BFFFFF7F7F0000C0407D
S31508003030000080BF25D6010830B585B00C46054688
S3150800304008990AB9FFF71AFC1268A2610029F9D093
S315080030500A68A262002BF5D0E1681B680029236480
S3150800306002DB436C9847606704F1100014F071FCAA
S3150800307070B100230293074B03900193064B284631
S3150800308000936C694FF48A73044A0549A0470120E6
S3150800309005B030BD60D6010867D601088FD501088E
S315080030A046D601082DE9F04F2DED048B16461D4630
S315080030B0B1F96030B7B00993B1F95C3091ED019A76
S315080030C00A93B1F95430D1ED029A0B93B1F9503005
S315080030D01AA80C93B1F96830459C0D93B1F9643080
S315080030E011460E9315F05BFD0EB9FFF7C7FB336863
S315080030F0294621A8109315F052FD002DF5D02B680E
S31508003100449928A80F9315F04AFD449B0BB11B68F8
S31508003110449321462FA815F042FD002CE5D02368DC
S3150800312019931A9B042BE0D1219B042BDDD12F9BED
S31508003130042BDAD100232FAA19461AA814F092F8FC
S315080031400323129000212FAA21A814F08BF8449B80
S315080031501E9C059043B100220123289828A9824283
S3150800316029DB059A9A42C0D11C9B13931D9B149385
S31508003170239B1593249B1693259B039394FBF3F3A8
S31508003180002BB2D0039A02FB1344002CADD1059A4A
S3150800319092FBF3F30893002BA7D0319B1793329B2E
S315080031A01893129BA34240F39F800A9B5B420693A7
S315080031B00023049314E051F8045F01326B43CEE711
S315080031C04FF00009099B5B420793189B4B4500F398
S315080031D08980049B0C9A01330493069B1344069337
S315080031E0179B049A9342EBDC0134DAE7089B4FF00D
S315080031F0000A95FBF3F3DFED3F8A039A069E5343D5
S315080032001193159B53452CDC449B002B67D003EB8D
S31508003210850393ED008A38EE288AB4EE489AF1EED3
S3150800322010FA39FE088AF4EE489AF1EE10FA4B467F
S3150800323000952146049A2FA848BFB0EE698A13F074
S31508003240DFFF199B013503EB800080ED008A059BA3
S31508003250AB42CBDC079B0B9A09F101091344079390
S31508003260B3E74FF0000B079F169B5B4504DC0E9BEC
S315080032700AF1010A1E44C4E756EA07032AD4149B36
S31508003280BB4227DD139BB34224DD4FF000081EE046
S31508003290119B32464344214600931AA83B4613F035
S315080032A0AFFF109B524603EB800090ED008A5B4609
S315080032B0CDF80080294621A813F0A2FF0F9B08F13C
S315080032C0010803EB8000D0ED007AE8EE278A039B1D
S315080032D04345DDDC0D9B0BF1010B1F44C4E79FED55
S315080032E0058A98E70025B2E7002037B0BDEC048BC5
S315080032F0BDE8F08F00000000002313B50446CDE9B1
S315080033000033044A044B054915F01FFC204602B059
S3150800331010BD00BFB52C000883730108EF710108C2
S315080033202DE9F04FCC6807460E4695B00CB9FFF765
S31508003330A5FA0B690393002BF9D0C56800222B6800
S3150800334028469B6998472B68012231469B69814626
S31508003350284698472B68022231469B6983462846A9
S3150800336098472B688046002231462846DB699847ED
S315080033708246B9F1000F0BD16D4B00934D237C6942
S3150800338038466C4A6C49A047012015B0BDE8F08F55
S3150800339020B96A4B00937C694E23F1E799F81C60C3
S315080033A006F0F706012EEFD1B8F1000F00F09F8066
S315080033B041460CA815F0A9FA00220C990CAB8A42D2
S315080033C0C0F2908099F81C30092B72D1039B5246A3
S315080033D019780AAB0093384609AB09F0E5FE0028D0
S315080033E0D3D100220023CDE90C230CABCDE900A3F1
S315080033F05A46434649463846FDF772FB0028C4D16B
S31508003400D9F81030D9F81410A36004A814F026F8D7
S3150800341004F10C0C04AB0FCB8CE80F00D9F80C3078
S315080034205B42E361BBF1000F63D0DBF81030DBF8D9
S315080034301410236204A814F011F804F1240C04AB48
S315080034400FCB8CE80F00DBF80C30DAF814105B426F
S3150800345063630023C4E90E36DAF8103004A823643F
S3150800346013F0FCFF04F1440C04AB0FCB8CE80F00FF
S31508003470DAF80C309DED0C0B6365FCF7B9FF10EE1E
S31508003480103AA4F85830099B04F1080084F85A3019
S315080034900A9B84F85B3014F03AFB84F8600050BB52
S315080034A020469DED0C0B0BA90AF050F80B9B5B42CE
S315080034B063602B68494628465B6A98472B685946D5
S315080034C028465B6A9847B8F1000F04D02B68414636
S315080034D028465B6A98472B68284651465B6A984790
S315080034E0002052E753F8040F0132464367E7464681
S315080034F068E75B469BE7B8F1000FDAD0D8F81030DA
S31508003500384603937100BB6B9847074600283FF47B
S315080035103BAF01463246039802F0BAFF00287FF413
S3150800352033AF94F86030A763002BC2D1B8E700BF69
S3150800353002D6010874D6010826D5010861D5010806
S315080035402DE9F04F2DED028B012AA1B01C46DDE9CD
S315080035502C762E9D15D0032A18D0F7EE007ADFEDCB
S315080035604C8A022A9FED4B8A47FEA88AFFEE007A0C
S3150800357007FE888A214604A815F011FB4CB9FFF707
S315080035807DF9DFED438A9FED448AF3E7F1EE088A79
S31508003590F9E7236839460BA8039315F000FB002FBB
S315080035A0EDD03B68314612A8029315F0F8FA002EC2
S315080035B0E5D0294619A8376815F0F1FA002DDED0AE
S315080035C0199C2B68013C214619A8019313F02FFF7B
S315080035D00B9D0090A91E0BA813F0AFF92146814652
S315080035E019A813F0AAF981450446C8D1691E0BA883
S315080035F013F0A3F9002302469C461846DFED266A17
S31508003600009961453DDD0025019901EB8009039983
S3150800361001EB8308294621E0BAEC016ABBEC017A82
S31508003620E6EE077A0EF1010E7245F5DC0FB307EBED
S31508003630810E9EED007A77EE877AF4EE487AF1EEFF
S3150800364010FA48BFF0EE487AF4EE687AF1EE10FA0E
S3150800365078FEA77AE9EC017A01311544A1420BDA22
S31508003660029EC2464FF0000EDFED0B7A06EB850B85
S31508003670DAE7B0EE667ADEE70CF1010C2044134473
S31508003680BEE7002021B0BDEC028BBDE8F08F00BF7D
S31508003690FFFF7F7FFFFF7FFF00000000002313B5B9
S315080036A00446CDE90033044A044B054915F04DFAA2
S315080036B0204602B010BD00BF213300086939000852
S315080036C01D7401082DE9F04F92F86070E1B01446B8
S315080036D0DDE96A981E466C9D08905FB11F7A092F2E
S315080036E008D1CDE96B85CDF8A89161B0BDE8F04F5A
S315080036F013F0CFBEB8F1000F01D1FFF7BFF8D8F825
S315080037000070002F00F08B8029462FA815F047FA85
S315080037102F9B022BF1D1309B494636A8DDF8C4B061
S31508003720099315F03CFA369936A8013913F005F9CC
S31508003730314682463DA815F032FAE269CDF874A002
S315080037402A92626D099B2C92626B30462B9294F9F1
S315080037505A201A932D9294F95B201EAF2E92226856
S31508003760169262680124CDE91EA44FF0000A52425F
S31508003770CDE926341792CDE9204BCDE9244BCDE986
S31508003780284BCDE91B44CDE92244CDE918AA13F00C
S315080037907AFE8346484613F076FED8F80030002DA8
S315080037A0ABD02A682AA9069226AACDE9043222AB0A
S315080037B0CDE90203CDE900B71AAB16AA18A80CF092
S315080037C009FD50B3089B3046D3F814B013F05BFEDE
S315080037D00646484613F057FE2B6816AA069326ABEC
S315080037E00593D8F800302AA9049322ABCDE9020341
S315080037F0CDE900671AAB18A80CF0ECFC564BCDE9DE
S31508003800020A0193554B08980093554AE4235549F3
S31508003810D847204661B0BDE8F08F0020FAE7E36993
S3150800382031460B93636B44A80C93636D0D93236821
S315080038300E9363685B420F9394F95A30089394F990
S315080038405B30099315F0ABF9304613F01CFE494678
S3150800385010904BA815F0A3F9484613F014FE4146FC
S31508003860119052A815F09BF9294659A8D8F800B026
S3150800387015F095F9002D3FF440AF4B9E2B68012EAD
S3150800388014937FF73AAF599C002C7FF736AFDDE9E2
S31508003890083293423FF731AF013C214659A813F04D
S315080038A0C6FD2146129059A813F047F8B11E0546E1
S315080038B04BA813F042F885423FF71FAF711E4BA87D
S315080038C013F03BF83C460646B946BA46129B5345A2
S315080038D0A3DD4FF00008149B47464B440A932BE0A0
S315080038E01EF9012B0C9913921CF9012B01330A447A
S315080038F015920B99139A0A441146159A01FB020070
S315080039009E42EDDCBBF1000F02D05BF8273018446D
S31508003910DDE90E1209F0E2FD0D9B01371844089BFC
S31508003920B0449842B8BF1846099B9842A8BF1846A3
S315080039300A9B03F8010B0A93BD4208DD109B03EBB3
S31508003940040E119B03EB080C00231846D8E70AF16E
S31508003950010AA9443444B9E7F2D6010807D7010891
S3150800396074D6010846D601082DE9F043D1F810901F
S3150800397004460D4685B0B9F1000F01D1FEF77EFF6A
S31508003980002215F004F9012229460646204615F0BC
S31508003990FEF8022229460746204615F0F8F80022C6
S315080039A080462946204615F0F4F8EA680346002AB8
S315080039B0E4D0307A01280BD0092816D0656909F0B9
S315080039C085FB337A02460D492046A847012009E0BF
S315080039D099F800202946CDE9018320463346009709
S315080039E0FFF7AEFD05B0BDE8F083CDE901832946B2
S315080039F0334620460097FFF765FEF3E773D50108BF
S31508003A00D0F8BC2038B5052A06D8002300F1900462
S31508003A109A4205D100200AE0064800F053F9FEE76D
S31508003A2054F8045F8D4203D12A3350F8230038BD79
S31508003A300133EDE7AED3010820292DE9F04105460B
S31508003A400F461446984607D11F4815F000F8BDE8FA
S31508003A50F0411E4814F0FBBF03681B68984740B145
S31508003A601B4814F0F4FF39461A48BDE8F04114F033
S31508003A70EEBFD5F890C0BCF1040F06D939461648F2
S31508003A8014F0E5FF05211548EFE74FF01C0E0FCCA3
S31508003A900EFB0C5E0EF104060FC6D5F8BC3094E892
S31508003AA0070086E807000CF10102CEF81870C5F881
S31508003AB0902005EB83020133C2F89470C2F8A880FF
S31508003AC0C5F8BC30BDE8F0812BD801085CD80108E0
S31508003AD071D80108A0D80108C1D80108F2D8010890
S31508003AE0014B1868704700BF24B20220014B1868C2
S31508003AF0704700BF20B20220014B1868704700BF0C
S31508003B001CB2022030B5244D89B0D5E8AF4F14F069
S31508003B10010411D1284616F0E3F968B11F48204B75
S31508003B20204A21490360C0F89040C0F8BC4016F00E
S31508003B30D2F9284616F0E0F901A8FFF7DDFB01AA3D
S31508003B4003211A4B1548FFF777FF01A8FFF70AF874
S31508003B5001AA0021164B1148FFF76EFF01A80AF0CB
S31508003B60A3F901AA2821134B0C48FFF765FF01A802
S31508003B70FFF794FD01AA09210F4B0848FFF75CFFE0
S31508003B8001A800F031FA19210C4B044801AAFFF7E5
S31508003B9053FF024809B030BD94B0022098B0022005
S31508003BA064D90108EC210320BF740108978701082E
S31508003BB03D870108D9860108D5CF00087DD00008C1
S31508003BC02DE9FF412F4CD4E8AF3FDB070BD4204645
S31508003BD016F086F938B12C4A2C492D4816F07BF98F
S31508003BE0204616F089F92A4B2A4E33602A4B1A6862
S31508003BF0D7189B58FB1A1A88042A04D99B8813B12C
S31508003C00FB58032B04D02549214814F02BFDFEE769
S31508003C10FFF778FF8046224DD5E8AF4F14F0010430
S31508003C2015D1284616F05CF988B11E4B424639462E
S31508003C300093CDE901441C4B1C4814F096FE124A29
S31508003C401B491A4816F047F9284616F055F9174839
S31508003C50184D286009F06AFE044620B116493068F6
S31508003C6014F000FDFEE70146286809F035FD134B00
S31508003C7021461860286809F045FD114B186004B004
S31508003C80BDE8F08118B20220EC210320BD740108BA
S31508003C90F021032028B2022044DC010805D90108D6
S31508003CA058B1022098AB0200000400205CB1022043
S31508003CB00F8A010824B2022022D9010820B2022064
S31508003CC01CB2022038B5094B04461B7863B107F0CD
S31508003CD0E1F80546204616F090FA2146024628469F
S31508003CE0BDE8384014F0E6B838BD00BF50230320BD
S31508003CF02DE9F0470B6804460F46C56892B013B124
S31508003D001B68012B11D00122CDE902323C4B0193ED
S31508003D103C4B00932F23656920463B4A3B49A847FD
S31508003D200124204612B0BDE8F0874B6813B11B6822
S31508003D30012B09D00122CDE90232314B0193344BD4
S31508003D40009365693023E7E72B68002228469B69BC
S31508003D509847064640B92F4B00933223656920469B
S31508003D60294A2D49A847DBE743691B68002B04DC71
S31508003D702A4B009365693323F1E72B6800223946FD
S31508003D802846DB699847804620B9254B0093656924
S31508003D903523E4E7D7F80C90B9F1000F04D1214B8D
S31508003DA0009365693723DAE7CDF800903B69024648
S31508003DB031462046FCF72CFF3146044604A814F089
S31508003DC0A4FD41460BA814F0A0FD049F0BAA013FD1
S31508003DD0394604A813F0B1FB3B46824639460BAA7E
S31508003DE004A813F03FFA2B683146C9E90EA05B6AAE
S31508003DF0284698472B68414628465B6A984790E7C5
S31508003E0056DA01081DDA010878D9010846D60108EC
S31508003E102DDA010802D6010826D501083EDA01087E
S31508003E2061D5010858DA01082DE9F04F2DED048B0C
S31508003E300C460E6885B0013E3146009091462046F4
S31508003E401A461D4613F079FB33462A46314607467D
S31508003E50204613F007FA00260446B046DFED299AF5
S31508003E6003AAB84504DB05B0BDEC048BBDE8F08FAA
S31508003E7009EB860B5846B0EE698A0021B500A142C7
S31508003E808DED038A0FDB129B4FF0000A1D442B466B
S31508003E90DFED1D8AA24514DB0023A3422ADB08F1C5
S31508003EA001082644DDE70346D3ED007AF4EEC87A26
S31508003EB0F1EE10FAD8BF1346043093ED008A0131AB
S31508003EC0DDE70193009BBBEC019AD3E900010FF0F3
S31508003ED009FE39EE489A00EE100A20EE090A10F09B
S31508003EE017FE019B78EE808AA3EC010A0AF1010A03
S31508003EF003AACFE795ED007AC7EE287A0133E5ECF9
S31508003F00017ACAE7FFFF7FFF00000000F0B5002234
S31508003F10A5B00C46054614F03AFE2146074600228F
S31508003F20284614F036FEE46806460CB9FEF7A6FCE9
S31508003F3014AD0FCC0FC50FCC0FC50FCC0FC594E829
S31508003F400F0085E80F00387A07282DD0092817D0E2
S31508003F5001283ED1394606A814F021FE31460DA89F
S31508003F603C6814F01CFE002EE0D03368224600930D
S31508003F7006A90DAB14A8FFF757FF002025B0F0BD22
S31508003F80D6F800C0367A1A9D179C092E38682299E9
S31508003F90CDE9015C169B239A009402D10CF01CFA19
S31508003FA0EBE70CF027FAE8E71E9B386804931F9B9B
S31508003FB0DDE922120593DDE91634002EB6D0356800
S31508003FC0029504ADCDE900450CF022FA0028D4D0BC
S31508003FD0ACE709F07BF83A7A0146024814F037FD57
S31508003FE00120CBE773D50108002313B50446CDE9B4
S31508003FF00033044A044B054914F0A7FD204602B0D5
S3150800400010BD00BFF13C00080D3F000829750108E6
S3150800401080B555488AB014F013FB544814F010FBC9
S3150800402028220521524808F081FF524814F008FB5F
S31508004030FEF708FC18F04BFB01210446084617F06A
S315080040409FFD204618F03EFB4B4D4C4E4C4F4FF013
S3150800405008090DF118080022C82311461046CDE9B3
S31508004060009817F02BFBFEF745FBFFF73FFD12F014
S315080040704EFC0028EFD1FFF733FD09F04DFD04464D
S315080040800028E8D1FFF738FD0028E0D002692B6840
S3150800409092F90010CDE90344F15492F90100F118A0
S315080040A04871052092F9022001338A7293FBF0F2D7
S315080040B002EB82029B1A2B60304B059403AA93F9F4
S315080040C0001093F901C001348C4493F90210032CB3
S315080040D0614493F903C003F105038C4413F9011CE9
S315080040E0614491FBF0F142F8041BE8D1DDE90312C3
S315080040F08A42CCBF14460C46059BCCBF4FF001083C
S315080041004FF000089C42BCBF4FF002081C4657F807
S315080041102800019400901B4808F008FF1A4813F07D
S3150800412047FD1A4813F044FDB8F1000F05D1642C79
S315080041300ADC174814F084FA89E7B8F1020F10D0A0
S31508004140272C06DC1348F5E70F4813F02EFD124816
S31508004150F0E70D4813F029FD0C4813F026FD0F482B
S31508004160E8E70F48E6E700BF73DA01089CDA0108BA
S31508004170C7DA0108F8DA01082CB2022085FD022008
S315080041809CDB010823DB01082CDC010814DC010890
S3150800419042DB01084DDB01085BDB01085FDB010838
S315080041A049DB010800B58FB00AAB02220893002349
S315080041B04FF40071CDE906323322CDE902210A4ACD
S315080041C0CDE9043301921422084900920848094AA5
S315080041D005F048FF9DF828301BB19121064813F0D9
S315080041E07CFA0FB05DF804FB30B2022066DB0108EA
S315080041F030BA02201140000871DB0108064B1B6823
S315080042001A7A022A04D812B11B68044A1360704746
S31508004210032AF9D0704700BFF4210320C8BA022048
S3150800422070B51F4DA2B00BAC0FCD0FC495E80F00AB
S3150800423084E80F0000244FF47023CDE90244049467
S31508004240019313AD01AE0FCE0FC5164BCDE907444A
S3150800425009942B60144B18AD069306AE0FCE0FC506
S315080042602022124B12482B60124B13A91D93124B96
S315080042702094CDE91E23114B0BAA2193104B06F06F
S31508004280C1FE044618B1BA210E4813F026FA0021D9
S315080042904FF4E13013F005FA204622B070BD00BF96
S315080042A0DCDB01083C00015B01000F004400015BF8
S315080042B0E4BB022094FD022000010100082203202D
S315080042C0CCBA0220A8DB010829B9074B186803688D
S315080042D04BB107F05BBE012905D1034B186803688B
S315080042E00BB113F0C6BE70471C22032008B504495B
S315080042F0044808F039F9BDE80840FFF791BF00BF48
S315080043002022032010BC0220014806F0B5BF00BFDA
S31508004310E4BB022008B5054813F044FC044813F032
S3150800432041FCBDE80840034813F03CBC2CDC0108FE
S3150800433014DC0108FCDB01087FB5254A0828138828
S31508004340ADF80030ADF80430ADF80830ADF80C30F3
S315080043504FF42063ADF810305388ADF814300ADCFA
S3150800436000280EDD013807280BD8DFE800F00C1509
S315080043700A1A0A0A0A1E202821D0402823D0102803
S3150800438017D0E12116E001220421684602F082F9DD
S31508004390002007B05DF804FB042101220DEB0100A3
S315080043A0F4E70122042102A8F0E70122042103A868
S315080043B0ECE7CA21074813F090F90E20E9E7012235
S315080043C0042104A8E2E70122042105A8DEE700BFCC
S315080043D030350308C434030808B5064818F056FCF7
S315080043E013F0E6F84020FFF7A7FFBDE8084000F005
S315080043F049BA00BF70420308014818F047BC00BF1D
S3150800440070420308F0B54B1E012B07460E468DB0C9
S3150800441000F29080DFF858C103AC65460FCD0FC493
S315080044200FCD0FC42B6844482360BCF82430BF0165
S31508004430ADF80030BCF82630ADF80430BCF82830AA
S31508004440ADF8083018F022FC3C4818F01FFC002292
S315080044500121684602F01EF9042100220DEB010035
S3150800446002F018F90022042102A802F013F9052324
S315080044708DF80C3001238DF820304FF44073012E4F
S3150800448003A92F4808BF8DF82B60ADF8283005978B
S3150800449005F082F80D222B4B1A622B4A1A634FF04D
S315080044A003125A6302F500325A6202F03FFB0021FA
S315080044B0264802F0C3FA044618B1012420460DB076
S315080044C0F0BD234A012ED37823F03C0343F034038E
S315080044D0D370D37C23F03C0343F03403D37412D156
S315080044E001461C4802F0AAFA0028E6D11A4AD378EF
S315080044F023F03C0343F03403D370D37C23F03C030E
S3150800450043F03403D37418F0E2F80121054608464F
S3150800451017F036FB284618F0D5F8104B104A1E70CF
S31508004520002313700F4A13700F4A137001220F4BA2
S315080045301A70C3E72124C1E77042030860420308E2
S3150800454000000A5000C80350030004001CBC0220E7
S315080045504822032018BC022028220320B4FD02208A
S31508004560B8FD0220B7FD0220B6FD0220B5FD0220E7
S3150800457034350308184B73B51B78002B28D0174D14
S315080045802C783CBB164A174E13681748334003432A
S315080045901360136915493340034315489160136145
S315080045A091610094134B1449006802F0F3FA134B17
S315080045B01B78012B07D1124800942346114A124949
S315080045C0006802F0E7FA012300202B7002B070BDE4
S315080045D01120FBE70220F9E7B5FD0220B6FD02200F
S315080045E0482203200F80FFCFF07F00307EFD022097
S315080045F01CBC02206547000878220320B4FD02206F
S3150800460018BC02202822032068220320184B2DE913
S31508004610F0411B7804460D4616461BB3154B1B780E
S3150800462013BB154F3B78FBB9DFF8608098F800306C
S315080046304B43B3F5006F19D8104B1B780BB9FFF72E
S3150800464099FF98F8003000205D430D4B1D600D4B17
S315080046501C6004EB45045C600B4B1E6001233B7039
S31508004660BDE8F0811120FBE70220F9E72120F7E7F2
S31508004670B5FD0220B8FD0220B7FD0220B6FD0220D6
S3150800468024BC022028BC022034BC0220B4FD02202F
S3150800469010B50C4C237893B10B4B186816F03EF8FE
S315080046A00A4B1B78012B03D1094B186816F036F80C
S315080046B00020084B20701870074B187010BD022098
S315080046C0FCE700BFB6FD02201CBC0220B4FD022098
S315080046D018BC0220B8FD0220B7FD022030B5002420
S315080046E01B4B85B0DA8C1B4DADF804209A8C1B8DBC
S315080046F0ADF80820ADF80C30FFF7CAFF284604F0DD
S31508004700B3FE224621466C6501A801F0C3FF224686
S31508004710214602A801F0BEFF2246214603A801F061
S31508004720B9FF0D4B186802F0DBF90C4B186802F05C
S31508004730D7F917F0CCFF05462146012017F020FAD5
S31508004740284617F0BFFF2046054B1C7005B030BD44
S315080047503435030800000A501CBC022018BC02208D
S31508004760B5FD0220F8B53B4D2B78002B42D03A48D0
S3150800477011F0010F00F1100308BF1946374E384BE8
S3150800478032681C6818BF0146A2422CD2CB786FF358
S315080047900513CB70334B1B6803EB42038B60A31ADC
S315080047A0B3F5006F0B8817D940F2FF7402F5006263
S315080047B064F30E130B803260C37803F03003302B9A
S315080047C008D1C37C03F03003302B03D100232B70B0
S315080047D0FFF75EFF0120F8BD671EBA1A62F30E13D3
S315080047E00B803460E8E70A681F4B13430B601F4BC6
S315080047F08B60E1E71E4B1B78002BEBD0C9431648AC
S3150800480001F0010300EB0314E2781D01C2F3011263
S31508004810032A0FD1124A46591168164A0139C1F3BB
S315080048200A01324042EA01124251134A52F8233031
S31508004830A360CFE7114A1268002ACBD0104908486E
S3150800484009780068B0FBF1F10B4850F8230090474F
S31508004850C0E700BFB8FD02204822032020BC022082
S3150800486024BC022030BC0220F07F00307EFD0220EE
S31508004870B7FD02200F80FFCF28BC022034BC0220DF
S31508004880B4FD02202DE9F047544E96B0354609ACE2
S315080048900FCD0FC42B6806F1140523600EAC0FCD9F
S315080048A00FC495E80F00DFF84C8184E80F004C48E8
S315080048B018F0ECF9404618F0E9F94FF48073494FBF
S315080048C0ADF83C30484B38460B9309A90EAB0D930F
S315080048D004F054F904214FF4E065B6F834A00DEB62
S315080048E001000122ADF804A001F0D4FEB6F8369016
S315080048F00022012102A8ADF8089001F0CBFE368F00
S315080049000122042103A8ADF80C6001F0C3FE0122C0
S31508004910042104A8354CADF8105001F0BBFE344B09
S315080049204FF44870C4F8C8344FF00213C4F8C434BE
S3150800493003F58033C4F8CC341C23C4F8B43408F027
S3150800494035F808A8ADF8205001F018FF142008F033
S315080049502DF808A8ADF8205001F0E0FE232008F055
S3150800496025F808A8ADF8205001F008FFB921384607
S3150800497013F0CCF908A8ADF8205001F0CFFE0022BC
S3150800498005A81146ADF814A001F084FE002206A879
S315080049901146ADF8189001F07DFE0122002107A806
S315080049A0ADF81C6001F076FE0122002108A8ADF8DA
S315080049B0205001F06FFE384603F098FD002340466C
S315080049C0C4F8B434C4F8C834C4F8C434C4F8CC340D
S315080049D018F05FF916B0BDE8F08700BF6035030828
S315080049E07042030800C00850E070720000C003500F
S315080049F002000100744203080348044A0449121AD3
S31508004A00921012F05DBE00BFB4010008B4010008A0
S31508004A10EC21032008B5154B83F30A8800F030F81B
S31508004A20FFF7EAFF124B13498B4212D30020124BB1
S31508004A3012498B4218D3FDF7ABF8186850F8224094
S31508004A40586840F82240013298688242F5D30C3300
S31508004A50EAE70022F8E71C6844F8220001325C689D
S31508004A60A242F8D30833E4E70022F8E70000002062
S31508004A70DC080408E8080408E8080408E808040844
S31508004A804FF48041144B154A70B59A60D3F88820C4
S31508004A90134D42F47002C3F88820124A05F50054F3
S31508004AA091664FF0FF3222666FF4003262660D227D
S31508004AB0A2660222C3F8D020BFF34F8FBFF36F8FD1
S31508004AC04FF44036002006F093F90020E66006F021
S31508004AD05DF92E6170BD00BF00ED00E00000000822
S31508004AE00080004400900050014B1860704700BFDA
S31508004AF08C220320054B1860054B1B6F03F0070338
S31508004B00032B01D115F05CBD704700BF942203202A
S31508004B100080005038B504460D4601B118B9372152
S31508004B20034812F0DAFD23682B60256038BD00BF04
S31508004B309A35030838B504460D4601B118B945211A
S31508004B40044812F0CAFD236813B92B60256038BDE6
S31508004B501C46F8E79A35030810B5044618B95621D5
S31508004B60044812F0BAFD206818B1036823600023D0
S31508004B70036010BD9A35030838B504460D4601B1E1
S31508004B8018B98B21064812F0A8FD23682BB1AB4251
S31508004B9004D12B68236000232B6038BD1C46F4E73C
S31508004BA09A3503084FF0BA420123054802F58051A9
S31508004BB04B60086203490968D160034A137070475D
S31508004BC001000C1F98220320B9FD02204FF0BA41BC
S31508004BD0074BCA681A600123064A53604B6813F0EC
S31508004BE00203FBD14FF0FF311162034A137070477D
S31508004BF0982203200020005DB9FD02204FF0BA423A
S31508004C00D369126A10B5134013F0F8501EBF01207D
S31508004C10114A1070DC070ED54FF0BA410A695007E1
S31508004C20FCD50E4A4C6910682044106088695168A2
S31508004C30014401205160590341BF08490A6802F13D
S31508004C4080720A601A0341BF04494A6802F18072F9
S31508004C504A60034AD36110BDBAFD022038BC02205F
S31508004C600020005D0023044A04491370044A0548DD
S31508004C701360054A00F0B8B9BAFD0220CD4B00080A
S31508004C8044BC0220A54B0008FD4B000808B500F0FF
S31508004C900FFA4FF0BA430A4AD969136841F201502C
S31508004CA00B4313604FF47D32064BDA61064B1A78D4
S31508004CB0002A4FF0000208BF10461A7008BD00BF50
S31508004CC044BC02200020005DBAFD022009230E4ADA
S31508004CD070B5C0F810311368054601330E461360E7
S31508004CE0FFF7D4FF044660B900F0D0F94FF48A7292
S31508004CF02846064900F0AEF91EB1BDE87040FFF738
S31508004D00C5BF204670BD00BF40BC02206400005DE0
S31508004D100729F8B505460C4610EE107A10EE906A8B
S31508004D2004D940F20711044812F0D7FC05EB8403B6
S31508004D3025F824705E80F8BDFA3503082DE9F84F8A
S31508004D40042980460D4693469946BDF82840BDF885
S31508004D502C70BDF83060DDF838A004D94FF4917195
S31508004D60344812F0BAFCB4F5806F04D940F2231126
S31508004D70304812F0B2FCB7F5806F04D94FF492713F
S31508004D802C4812F0AAFCB6F5806F04D940F225111A
S31508004D90284812F0A2FC0D9B03F50063B3F5805F6B
S31508004DA004D34FF49371234812F097FC0AF5006375
S31508004DB0B3F5805F04D340F227111E4812F08DFC2C
S31508004DC00F9B03F50063B3F5805F04D34FF494712A
S31508004DD0184812F082FC184B0F9A013E03EA024269
S31508004DE0C6F3090616430D9A013C03EA0A4AC4F3B8
S31508004DF0090403EA02431C43013F4FEA093303F45B
S31508004E004053C7F309071C4347EA0A0708EB05138B
S31508004E1019F0040F05F10205C3E90A7618BF44F430
S31508004E2080442B0108EB05156C6048F803B0BDE813
S31508004E30F88F00BFFA3503080000FF0F2DE9F0418F
S31508004E40072905460E4614461F469DF8208004D9B4
S31508004E504FF4B5710A4812F040FCDDE90623240533
S31508004E601A43B8F1000F01D044F000440C2303FBA9
S31508004E700651C1E92C72C1F8B840BDE8F08100BFFF
S31508004E80FA3503082DE9F041072906460C4615466A
S31508004E9098469DF8187004D940F27D11214812F001
S31508004EA01CFC013DABB2B3F5806F04D34FF4BF7160
S31508004EB01C4812F012FCB8F1070F04D940F27F1112
S31508004EC0184812F00AFC072F04D94FF4C071154888
S31508004ED012F003FC0C21079B06EBC40245EA0335D6
S31508004EE0089B15671B03536701FB0862B845D2F890
S31508004EF0B8004FEA440406D10323A3400343C2F88B
S31508004F00B830BDE8F0810123A3400343C2F8B830A6
S31508004F10022201FB0766D6F8B830A2401343C6F84A
S31508004F20B830EEE7FA350308F8B500210C25044633
S31508004F30D0F8743200F50976DFF854C0D0F8680264
S31508004F408B4217DA05FB030393F8BB20002142F0D6
S31508004F50800283F8BB20FFF7B9FE4FF48A72D4F8B3
S31508004F606C3283F00103C4F86C3202FB0343C4F8C5
S31508004F706832F8BD05FB0107D7F8B82056F804EFE4
S31508004F8002EA0C0242EA0E02C7F8B8200131D7E756
S31508004F900000FFFF8B1E012B03D8044B1B6823B1AF
S31508004FA01847012901D8024BF8E770475CBC022074
S31508004FB060BC022010B517F08AFB044600210120C8
S31508004FC016F0DEFD204617F07DFB0022014B1A7015
S31508004FD010BD00BFBBFD0220024B03C883E80300D7
S31508004FE00020704750BC022038B5114C2378E3B92D
S31508004FF0104B114D1960114B28601A604FF0804212
S315080050000F4B10489A66FFF7E7FF1C2005F0BEFE17
S315080050102B6803B198470C480C4907F0A5FA0123F9
S31508005020002023700A4B187038BD1220FCE700BF19
S31508005030BCFD02205CBC022060BC022058BC0220D9
S315080050400090005050BC022048BC02206436030879
S31508005050BBFD02200B4B10B51B7873B10A4B1B78AE
S315080050606BB1002392089A4201D1002010BD50F876
S31508005070234041F823400133F5E71120F6E70E20D7
S31508005080F4E700BFBCFD0220BBFD022010B517F0F7
S315080050901EFB01210446084616F072FD204617F04D
S315080050A011FB0122014B1A7010BD00BFBBFD022087
S315080050B0064B1B7843B14FF0BA4213695B07FCD520
S315080050C0034A1378002BFCD1704700BFBCFD0220B1
S315080050D0BBFD022008B5054B1B682BB1984718B1D4
S315080050E0BDE80840FFF766BF08BD00BF58BC0220F0
S315080050F00048704764BC02200048704764BC022020
S31508005100F0B5044601258C4205D88D4203D8002007
S3150800511015601C60F0BD0020DFF828C01CF8017B74
S31508005120B4FBF7F607FB164EBEF1000F05D1B442E5
S3150800513007FB05F504D03446E5E701300B28EDD129
S315080051400120E5E76C3603082DE9F04F174687B0CE
S3150800515004460D469846FFF7CBFF17F1800F064623
S3150800516002D1B8F17F0F04D0A02D12D82544A5424C
S3150800517003D1002007B0BDE8F08F94F900309F42B4
S3150800518002DD27700134F2E79845B8BF84F800803D
S31508005190F8E74FF0000940F20A2A3B463A46002152
S315080051A0304612F0AEFA434642460121304612F026
S315080051B0A8FA4B464A4649463046CDE90199CDF804
S315080051C000A0FFF73BFE40F20B232F4A0121CDE951
S315080051D00032304640F2D5122C4BCDF80890FFF736
S315080051E02DFE01212A4B40F2D512CDE90131304678
S315080051F00221284BCDF800A0FFF720FEB5F5006F79
S315080052002B4628BF4FF4006323F0030B4FEA5B0AD3
S315080052101FFA8AFA2246002130460593CDF800A0E7
S31508005220052312F0A2FA0523224601213046CDF8BD
S3150800523000A012F09AFA0223059A0021304600933C
S31508005240CDE901990123C2F38F02FFF71BFE012165
S315080052503046FFF73BFD00288CD1A5EB0B059F2DAB
S315080052605C44CBD8002D84D0254414F9013B9F42D9
S3150800527004DD04F8017CA542F7D17AE79845B8BF62
S3150800528004F8018CF7E700BF0000A0210001022006
S315080052900000B021000103302DE9F04F2DED028BFF
S315080052A0044687B0002800F00281FFF721FFD4EDFD
S315080052B0017AF8EEE70AD4ED027A60EEA70AD4ED91
S315080052C0047AB8EEE78AD4ED057AE368B0EE600AA8
S315080052D0002128EE278A05460593D4F824A0D4F899
S315080052E00090D4F8188012F03AFAD4ED020A012197
S315080052F0B0EE600A284612F032FAF0EE480AB0EE2E
S31508005300480A0221284612F02AFAD4ED050A032192
S31508005310B0EE600A284612F022FAE36904211A461A
S31508005320284612F008FAD4ED080A0521B0EE600AFC
S31508005330284612F014FA002640F20E2340F2D7123D
S31508005340314628460093CDE901665C4BFFF776FDAA
S3150800535040F21F2340F2D712012128460093CDE9D7
S315080053600166574BFFF76AFD4FF4A77202212846DC
S31508005370544BCDE901660096FFF760FD0122524BBA
S315080053800321CDE90132284640F2D7124F4B009649
S31508005390FFF754FDBAF1010F46DC38D1626899F976
S315080053A0003094ED056A134407EE903A059B22698E
S315080053B093F90030B8EEE77A134407EE903AF8EE20
S315080053C0E77AD4ED026A67EE867A47EE267A94ED96
S315080053D0077AD4ED086AB8EEC77A07EEA67A17EE0A
S315080053E0100A0EF045F841EC100B0FF045FD51EC94
S315080053F0100B0EF077FB9FED367A07EE900AF4EE67
S31508005400C77AF1EE10FA45DD7F2388F8003094F963
S31508005410293094F92820616AA06907B0BDEC028B8F
S31508005420BDE8F04FFFF790BEBAF5006F5746A8BF24
S315080054304FF4006727F0010BC7F34F0705234A46C9
S3150800544000212846009712F090F9052301212846E5
S31508005450059A009712F089F9052342460221284643
S31508005460009712F082F90323009300232846194671
S315080054703A46CDE90166FFF705FD01212846FFF703
S3150800548025FCA8B9059BD9445B440593D844AAEBE7
S315080054900B0A7FE79FED0F7AF4EEC77AF1EE10FA62
S315080054A056BFFDEEE77A802317EE903AADE7212046
S315080054B007B0BDEC028BBDE8F08F00BF06010060A7
S315080054C007030270060007600000F0220605047054
S315080054D00000FE42000000C32DE9F04F036895B0B6
S315080054E00593436A066D0693836A42680793C36AFF
S315080054F0856B0893036ED0F814B00993C36DD0F882
